S00F00005261696E6573742E737265633F
S2140000000C9420080C943F080C943F080C943F086E
S2140000100C94836F0C94B06F0C94926F0C94A16F39
S2140000200C943F080C943F080C943F080C943F082F
S2140000300C943F080C94C86E0C94586F0C943F08B0
S2140000400C943F080C943F080C943F080C943F080F
S2140000500C94108F0C943F080C943F080C943F08A7
S2140000600C943F080C943F080C943F080C943F08EF
S2140000700C949A8F0C943F080C943F080C943F08FD
S214000080FEC70000FCC70000FAC70000AC50AE5028
S214000090B050B250B450B650B850BA50BC50D2500F
S2140000A0BE50C050C250C450C650C750C850C950A9
S2140000B0CA50CB50CD50CE50CF50CC50D050D1504F
S2140000C0D15007634236B79BD8A71A39685618AE80
S2140000D0BAAB558C1D3CB7CC5763BD6DEDFD753E78
S2140000E0F6177231BF000000803F08000000BE9285
S2140000F02449123EABAAAA2ABECDCCCC4C3E000068
S2140001000080BEABAAAAAA3E00000000BF00000006
S214000110803F0000000000084178D3BB4387D1131E
S2140001203D190E3CC3BD4282AD2B3E68EC8276BEC6
S214000130D98FE1A93E4C80EFFFBE01C4FF7F3F0090
S214000140000000003132333435363738393041421A
S214000150434445464748494A4B4C4D4E50515253EE
S2140001605455565758595A00256425642564256405
S214000170256400256C640053797374656D205265A0
S214000180636F766572790025642E25642E256400DB
S21400019025642E25640025640077686963687661A7
S2140001A06C766500686F776C6F6E6700776869635A
S2140001B06876616C76650025642E256425640025C6
S2140001C0640025732D257300253032583A253034C7
S2140001D0583A25643A253032583A2530326425306C
S2140001E0326425303264253032642530326425305E
S2140001F0326400256400257300256400256400250C
S214000200303458253034580025643A25642D25644A
S21400021000256400256400253032580025732D25FE
S21400022030325800256400256400686F776C6F6E66
S214000230670074696D657300746167007765656B48
S21400024073007765656B7300253478253478006E07
S214000250756D007869736875006D77737072617973
S2140002600074696D657A6F6E6500756E6974006DF1
S2140002706173746572746167006D6F6465696400AC
S214000280736473746174757300414D004D574D006F
S21400029053560052445600434F4E46004F4D0057AB
S2140002A04100534600253032583A253034583A2516
S2140002B0643A253032583A25303264253032642587
S2140002C030326425303264253032642530326400A2
S2140002D0736E747700696E746572760064656C651B
S2140002E0730066696E6574756E6500746167006399
S2140002F0696400636D64666565646261636B006370
S2140003006F6D6D616E6400636F6D6D616E645F6EC0
S214000310616D6500676574636400636F6D6D616E23
S214000320645F6E616D6500636F6E6E636C6F75649F
S214000330007365746E6F00676574646174657469D4
S2140003406D650074696D65006765746465767374C1
S2140003506174757300737461747573007364737479
S21400036061747573007374696D650075706C6F6188
S2140003706473656E736F7200676574646576706D1E
S2140003800077617465726C6F6E6700676574776579
S214000390617468657262796465766964006D696E19
S2140003A05F74656D70006D61785F74656D70007266
S2140003B061696E5F70726F626162696C6974790000
S2140003C064656C617900646174610025640067652A
S2140003D07466696E650066696E650064656C657353
S2140003E0007365747363686564756C650073647325
S2140003F0746174757300736E7477006765747363E5
S21400040068006E756D007365746D617374657274E3
S214000410616700747970650073656E647A6F6E65E7
S2140004206E756D005261696E4F6E6365005261694C
S2140004306E436C6F736500557064617465536368D2
S2140004406564756C65005365745363686564756CA4
S214000450650044656C6574655363686564756C65B2
S214000460006E756D005261696E44656C6179005569
S2140004707064617465506172616D006D617374655E
S214000480727461670055706461746546696E6500D4
S2140004905570646174655A6970436F646500557081
S2140004A0646174654D6F6465005570646174615372
S2140004B06572766500557067726164650076657270
S2140004C073696F6E0042696E64696E6700556E42AE
S2140004D0696E64696E670053796E635370726179F2
S2140004E0002532643A20252D3364002532643A20F4
S2140004F0252D3364002532643A20252D33640025EB
S21400050032643A20252D3364002532643A25303291
S21400051064002532642025303264002532643A2592
S214000520303264002532642025303264004A616E21
S21400053000466562004D617200417072004D61793F
S214000540004A756E65004A756C7900417567005300
S214000550657074004F6374004E6F760044656300E8
S2140005604D6F6E005475657300576564005468756A
S2140005707200467269005361740053756E002573ED
S2140005802025732025303264203230253032642016
S21400059020004175746F2052756E0054656D703A78
S2140005A0202564602D25646020200054656D703A17
S2140005B0202564232D2564232020005261696E695E
S2140005C06E673A202564005363686564756C650041
S2140005D0436865636B202620536574757000506C05
S2140005E0616E7300454E54455200576174657269DA
S2140005F06E67204E6F7700287A6F6E653A6D696E6B
S2140006002E2900524553455400535441525400205D
S21400061020005A6F6E6500256420002020007E258D
S2140006206400202000202000256420002000526561
S2140006306D61696E696E6700253032643A25303226
S2140006406420005741544552494E47204155544F67
S214000650004D616E75616C205761746572696E67D6
S2140006600053544F5000536176656420737563637E
S21400067065737366756C6C7900202020202020201E
S214000680202020202020202020202000252D303350
S21400069064004D696E2E2000252D30336400486FAF
S2140006A0757273005761746572696E672044656C75
S2140006B061790052455345540053415645005365F1
S2140006C07474696E670044617465202620436C6FFD
S2140006D0636B005769466920416363657373005214
S2140006E06567697374657220436F6E74726F6C6CA5
S2140006F06572004D61737465722053657474696E1B
S21400070067004E45585400534554555000416C6C94
S214000710205761746572696E6700546F6461790072
S2140007203A00252D367300253364003A00252D3611
S2140007307300253364002020202020202020202045
S214000740202020005761746572696E672041646AD4
S2140007507573746D656E740053415645004E45586A
S21400076054007C002573202530326420323025303A
S2140007703264200025732025732000253032640063
S2140007807C003230253032642000257320007C0047
S2140007902530326420323025303264200025732024
S2140007A02573202530326420003230253032640034
S2140007B025303264003A253032640020414D002056
S2140007C0504D002564686F75727300253032643AA8
S2140007D000253032640020414D0020504D00256435
S2140007E000253032643A253032640020414D002026
S2140007F0504D002564686F75727300253032643A78
S214000800253032640020414D0020504D002564689C
S2140008106F7572730053657475702044617465203B
S214000820616E6420436C6F636B004E455854004FF6
S2140008304B005365747570205769466920416363A1
S21400084065737300506C7320646F776E6C6F6164B1
S214000850204170702C00616E642072756E2057699E
S214000860466920416363657373004241434B0052FF
S2140008706567697374657220436F6E74726F6C6C13
S21400088065720020532F4E3A202020202020002082
S21400089050617373776F72643A20202020202020E6
S2140008A020002020202020002020200020506C73D4
S2140008B0205573652041505020546F20002052650B
S2140008C067697374657220446576696365004241A2
S2140008D0434B0053756363657373004241434B009B
S2140008E0202020002564007C002000202000536388
S2140008F0686564756C65205A6F6E650044454C00EB
S21400090053594E4300504153544500434F505920CD
S21400091000454449540025303264003A253032649C
S21400092000252D336400253032643A0025303264C9
S21400093000252D336400253032643A2530326400B9
S214000940252D3364005365742054696D6572002547
S2140009503032643A2530326400252D336420002579
S2140009603032643A2530326400252D336420002569
S2140009703032643A2530326400252D336420002559
S2140009803032643A2530326400252D336420002549
S2140009903032643A2530326400252D336420002539
S2140009A03032643A2530326400252D336420002529
S2140009B03032643A2530326400252D336420002519
S2140009C03032643A2530326400252D336420002509
S2140009D03032643A2530326400252D3364200025F9
S2140009E03032643A2530326400252D3364200025E9
S2140009F03032643A2530326400252D3364200025D9
S214000A003032643A2530326400252D33642000618C
S214000A102E00622E00632E00642E006D696E730039
S214000A206D696E20004E455854004F4B0020005311
S214000A306574205765656B646179004E45585400AF
S214000A404F4B005365742043616C656E64617200A1
S214000A504279205765656B004279204D6F6E746849
S214000A60004E455854004F4B0020202020202020C8
S214000A702020202020202020202020202020002091
S214000A802020202020202020202020202020202061
S214000A90202020200025640020002564002000255A
S214000AA064002564005365742044617973004E45E4
S214000AB05854004F4B00436F6E74726F6C6C6572C7
S214000AC020496E666F2E007777772E6E7865636F97
S214000AD02E636F6D00532F4E3A005665723A25739B
S214000AE00044656C657465207468697320706C6179
S214000AF06E3F0043414E43454C0044454C00424146
S214000B00434B205365742074696D6572006F7220C4
S214000B1043414E43454C200043414E43454C004222
S214000B2041434B004241434B205365742057656553
S214000B306B646179004241434B20536574204461E5
S214000B407973006F722043414E43454C0043414E3B
S214000B5043454C004241434B00546865726520692A
S214000B6073206E6F20706C616E21004241434B0013
S214000B705365742031327468207A6F6E6520617315
S214000B80006D61737465722076616C7665203F0037
S214000B9043414E43454C004F4B00436F76657220F1
S214000BA07468697320706C616E3F0043414E434524
S214000BB04C00434F564552004D61782054696D6590
S214000BC03A2564206D696E2E0043414E43454C0025
S214000BD04241434B000000000000000000000000FF
S214000BE000000000000000000000C0C0C0000000C0
S214000BF00000003030300000000070F88808083828
S214000C0038000038382121233E1C00E0F018080880
S214000C1018F0E0000F1F302020301F0F0008F8F8F3
S214000C2088E8E8181000203F3F2003030000000873
S214000C30F8F8080808F8F000203F3F2101010100FD
S214000C40000000C0F8F8E0000000203C3F23022728
S214000C503F3820808080000080808000001F3F207A
S214000C6020303F3F20008080E0E0808000000000D1
S214000C70001F3F20200000000080808080808000D1
S214000C800033372424243D190080808080808080B3
S214000C90800020203F3F212001010080808080804E
S214000CA08000000080FFFFA120311F0E00808080A2
S214000CB0808080800000203F3F2100203F3F208032
S214000CC08080808080808000203F3F203F3F203F04
S214000CD03F000808F8F8000000000020203F3F20F2
S214000CE0200000000080808080800000001F3F22DF
S214000CF02222331300000000808080800000000E57
S214000D001F3120203111000000808080808000008C
S214000D1000193D2622223F3F2000E0F0180818F078
S214000D20E000000F1F3020301F0F0000E0F0180812
S214000D3018F0E0000000313322331F0F000070F877
S214000D40880888F87000001C3E2321233E1C000003
S214000D50383808C8F83808000000003F3F00000098
S214000D600000E0F0988898180000000F1F3120312E
S214000D701F0E0000F8F88888880808000019392136
S214000D8020311F0E000000C0E030F8F80000000719
S214000D900724243F3F24000030388888C878300075
S214000DA00018382020311F0E00007078080888F8D8
S214000DB070000030382C2623313000001010F8F870
S214000DC0000000000020203F3F2020000000000020
S214000DD00000004020100804101054281080E06026
S214000DE00000017E0A0A02033B44444420080C3EED
S214000DF03E0C08BAD6EED6BA600070007C18187E94
S214000E007E18181818FF7E3C18472517E8A4E2003D
S214000E10423C000000003C4200FF000000000402CC
S214000E20A2120C708E9AE6B000005F0000006060B0
S214000E300000FF00002800000028000018181818FE
S214000E40180C5252523C344A4A4A340202720A067B
S214000E503C4A4A4A302E4A4A4A323028247E2022C9
S214000E60424A4A364462524A4400447E40003C525B
S214000E704A463C4262524A46060870080662140811
S214000E8014623E4030403E1E2040201E3E40404001
S214000E903E02027E0202244A4A4A327E1212324C35
S214000EA03C4252225C7E1212120C3C4242423C7E73
S214000EB00408107E7E0418047E7E404040407E0873
S214000EC01422402040423E0200427E42007E080835
S214000ED0087E3C425252707E0A0A0A027E4A4A4AFB
S214000EE0427E4242423C3C424242247E4A4A4A3485
S214000EF07C1212127C4464544C440C1050503C44F7
S214000F00281028443C4030403C1C2040201C3C40DC
S214000F1040207C083E48402008545454207C080456
S214000F200408081414147C7C14141408384444442C
S214000F30387C080404787C0418047C00427E400058
S214000F407E102844000020403D0000447D40007E86
S214000F501008087018A4A4FC00107C120204385470
S214000F60545418384444487E38444444207F484407
S214000F704438205454547840002B2B2B00610D0A23
S214000F80002B2B2B00610061742B77736D61630D52
S214000F900A0D0A0061742B776D6F64653D7374618A
S214000FA00D0A0D0A0061742B687470656E3D6F66DD
S214000FB0660D0A0D0A004E7845636F4032303136B2
S214000FC00023406948795834792B475051006174A2
S214000FD02B776562753D25732C25730D0A0D0A0067
S214000FE061742B756172743D25732C382C312C6E10
S214000FF06F6E652C6E66630D0A0061742B756172E8
S214001000740D0A0061742B756172740D0A00333812
S214001010343030003139323030003338343030003C
S21400102039363030003338343030006F6B3D006F67
S2140010306B3D006364696E6F70737578585B000073
S21400104011241FBECFEFD0E4DEBFCDBF14E0A0E07A
S214001050B1E0E0E6F3E401E00BBF02C007900D92BA
S214001060A83FB107D9F729E1A8EFB4E001C01D9267
S214001070A130B207E1F70E94096E0C94AEA10C9461
S214001080000080910806909109060E94AF36892BD1
S21400109011F084E001C083E08093B0050895FC0160
S2140010A080E090E020E030E0419151912417350730
S2140010B008F49A01019680339105B1F7C9010895A5
S2140010C02F923F924F925F926F927F928F929F9253
S2140010D0AF92BF92CF92DF92EF92FF920F931F9341
S2140010E0CF93DF93CDB7DEB760970FB6F894DEBF29
S2140010F00FBECDBF40903D0150903E018091B1059E
S214001100873009F4E6C08D3109F415C1863009F040
S2140011101CC180930C0180910A158230A1F020F446
S214001120813009F091C006C08330D9F0843009F0D0
S2140011308BC029C0E2E1F5E01192119225E0E2377A
S214001140F207D1F781C0E0917205F0E0EE0FFF1FC5
S214001150EE5EFA4F80819181009709F475C0019781
S2140011600FC0E0917205F0E0EE0FFF1FEE5EFA4F43
S21400117080819181883542E0940708F065C0019629
S2140011809183808361C082E195E089DF90931105A9
S2140011908093100520910C0630910D06281739070C
S2140011A020F48DE18093B0054DC087E08093B005B4
S2140011B072E1672E75E0772E71E0E4E63E2E22247B
S2140011C02394A895F301819191913F010097B1F185
S2140011D020918514222311F07C3081F1FCE3F89FE6
S2140011E09001F99F300D112438872F83E5EEF4E146
S2140011F0DE01199687E001900D928A95E1F73A8212
S2140012002B821C8280910806909109067983C22E53
S2140012103E832D83872E64E6962EAA24A394B12CB3
S214001220DE80EF80F88409851A852B853C854D8500
S2140012305E856F85788B0E943A3878897F5F713338
S21400124009F0BFCF0E947B16C20163E070E00E94E7
S214001250DC9780913F01823091F0833011F181302C
S21400126009F077C0809172058F5F8093720590E0D9
S214001270861797070CF46DC0109272056AC04091ED
S21400128072054F5F842F90E09B01220F331F821759
S2140012909307E4F440937205861797070CF059C03D
S2140012A015C0E0917205EF5F2E2F30E0CB01880F5E
S2140012B0991FAC01460F571F2417350734F4E093E7
S2140012C07205281739070CF044C0660F6093720544
S2140012D040C080930C0180910806909109060E94F8
S2140012E0AF36892B19F486E08093B00580910A15F5
S2140012F0843079F586E08093B00580910806909159
S214001300090660960FB6F894DEBF0FBECDBFDF911C
S214001310CF911F910F91FF90EF90DF90CF90BF90ED
S214001320AF909F908F907F906F905F904F903F9080
S2140013302F900C940F6880930C0180910A158130D1
S21400134011F0843031F486E002C080910C01809365
S214001350B00560960FB6F894DEBF0FBECDBFDF9126
S214001360CF911F910F91FF90EF90DF90CF90BF909D
S214001370AF909F908F907F906F905F904F903F9030
S2140013802F9008958EE1E0E5F4E1DF011D928A9545
S214001390E9F786E0809354148AE0809356148EE032
S2140013A08093581482E180935A1480E090E0A0E87D
S2140013B0BFE38093661490936714A0936814B09369
S2140013C069141092FC041092FB041092FA0481E057
S2140013D080930A01089580910A15843019F480E1FB
S2140013E08093B0050895CF93DF9380913D0190914F
S2140013F03E016CE070E00E94DC97EB01CC0FDD1F35
S214001400CC0FDD1F80910A158230C1F020F48130A8
S21400141009F0B6C006C08330C9F0843009F0B0C009
S21400142081C060910B0180910A0690910B060E9484
S214001430C036882309F474C084E1A0C080917C057E
S214001440813009F09DC0809378059AC060910B01A9
S21400145080910A0690910B060E94C0363091730563
S214001460332309F445C010927305882311F088E1F0
S21400147085C01092501480910B0180935C1480916B
S2140014800A0690910B062DB73EB72E5131090FB6BE
S214001490F8943EBF0FBE2DBFADB7BEB711962EE176
S2140014A0E0E5F4E101900D922A95E1F70E942215FD
S2140014B080910A0690910B06ADB7BEB75E970FB641
S2140014C0F894BEBF0FBEADBF11962EE1E0E5F4E185
S2140014D001900D922A95E1F70E94AC372DB73EB7E2
S2140014E0245C3F4F0FB6F8943EBF0FBE2DBF48C0DA
S2140014F08823B1F021E020937305BC017727809103
S2140015000A0690910B060E947C37DC01ED91FC9157
S2140015108EE1A0E5B4E101900D928A95E1F730C026
S21400152087E12CC060910B0180910A0690910B0612
S2140015300E94C0368823E1F0BC01772780910A0616
S21400154090910B060E947C37DC01ED91FC918EE1B8
S214001550A0E5B4E101900D928A95E1F71092FC04A3
S2140015601092FB041092FA0481E080930A0105C0F1
S21400157009DF80910B0180935C1481E18093B005B4
S21400158020913F01223081F02330F9F02130A1F57F
S21400159080910B018F5F80930B0190E0C817D907ED
S2140015A05CF520930B0128C040910B014F5F842F00
S2140015B090E09E01220F331F28173907D4F040937E
S2140015C00B01C817D907C4F014C060910B016F5FF8
S2140015D0862F90E09E01220F331FA9014C0F5D1F3E
S2140015E0481759072CF060930B012817390724F089
S2140015F0CC0FCF5FC0930B01DF91CF9108951F935F
S214001600CF93DF93FC0121E030E010E040E0C3E040
S214001610D0E0C901BE010E94DC97892B71F4A12F8E
S214001620B0E0AA0FBB1FA05BBB4E1D968D919C9190
S2140016301E97918380831F5F09C0A42FB0E0A05B34
S214001640BB4E14968C91808311824F5F2F5F3F4F65
S21400165032962D303105E9F6DF91CF911F9108952E
S2140016601F93CF93DF93FC0121E030E010E040E0D1
S214001670C3E0D0E0C901BE010E94DC97892B71F45B
S21400168080819181A12FB0E0AA0FBB1FA05BBB4E4B
S2140016901E969C938E931D971F5F08C0A42FB0E0E4
S2140016A0A05BBB4E808114968C934F5F2F5F3F4F9D
S2140016B032962D303105F1F6DF91CF911F910895C6
S2140016C0FF920F931F93CF93DF93CDB7DEB7689744
S2140016D00FB6F894DEBF0FBECDBFF82E8E010F5F9B
S2140016E01F4F88E1F80111928A95E9F7C80187DF54
S2140016F08F2D63E00E94BC97EF2DF0E0EE0FFF1FEA
S214001700E00FF11F911108C08081918101969183AD
S21400171080834897B0F009C0913051F48081918160
S214001720019691838083CC9760F01182108209C065
S21400173080819181883522E0920718F40196918382
S2140017408083CE0101968CDF68960FB6F894DEBFD4
S2140017500FBECDBFDF91CF911F910F91FF900895DF
S214001760FF920F931F93CF93DF93CDB7DEB76897A3
S2140017700FB6F894DEBF0FBECDBFF82E8E010F5FFA
S2140017801F4F88E1F80111928A95E9F7C80137DF03
S2140017908F2D63E00E94BC97EF2DF0E0EE0FFF1F49
S2140017A091110BC0D801AE0FBF1F8D919C91119760
S2140017B0892B89F488E190E00CC09130B9F4D80107
S2140017C0AE0FBF1F8D919C911197892B21F48CE34E
S2140017D090E08D939C93DE011196AE0FBF1F8D9106
S2140017E09C91119701978D939C9309C0E00FF11F70
S2140017F080819181009719F0019791838083CE01B3
S21400180001962EDF68960FB6F894DEBF0FBECDBFEA
S214001810DF91CF911F910F91FF90089580910A1547
S2140018208230B1F020F4813009F04AC006C083301F
S21400183091F0843009F044C011C08091FC048F5FA1
S2140018408C3018F48093FC0408951092FC040895DC
S2140018508091FC0485CF8091FC0432CF20910C0649
S21400186030910D06EDE5F4E140E081919191281765
S214001870390710F48CE122C0892B09F041E084E19D
S214001880E536F80791F74423C1F080915314882376
S21400189011F081E00EC080916A1490916B14A091B3
S2140018A06C14B0916D14181619061A061B061CF453
S2140018B083E080930A018BE101C085E18093B00547
S2140018C0089580910A158230B1F020F4813009F035
S2140018D079C006C08330F9F0843009F073C02AC09E
S2140018E08091FB048F5F873018F48093FB04089583
S2140018F01092FB04089581E090E00090FB0402C083
S214001900880F991F0A94E2F78095909153148923C3
S21400191080935314089581E090E00090FB0402C089
S214001920880F991F0A94E2F790915314982B90937E
S2140019305314089580915314882309F440C01092DC
S214001940501480910A0690910B062DB73EB72E5183
S21400195031090FB6F8943EBF0FBE2DBFADB7BEB768
S21400196011962EE1E0E5F4E101900D922A95E1F75B
S2140019700E94221580910A0690910B062DB73EB75D
S2140019802E5131090FB6F8943EBF0FBE2DBFADB72E
S214001990BEB711962EE1E0E5F4E101900D922A958E
S2140019A0E1F70E94AC3780E18093B0058DB79EB713
S2140019B0CC960FB6F8949EBF0FBE8DBF089586E1F5
S2140019C08093B005089580910A158230B1F020F416
S2140019D0813009F0A1C006C0833069F1843009F077
S2140019E09BC04BC08091FA048F5F8F3118F48093B0
S2140019F0FA0408951092FA04089581E090E0A0E0B9
S214001A00B0E00090FA0404C0880F991FAA1FBB1FFD
S214001A100A94D2F780959095A095B09540916A1457
S214001A2050916B1460916C1470916D1484239523FF
S214001A30A623B72319C081E090E0A0E0B0E00090B4
S214001A40FA0404C0880F991FAA1FBB1F0A94D2F776
S214001A5040916A1450916B1460916C1470916D14DF
S214001A60842B952BA62BB72B80936A1490936B141C
S214001A70A0936C14B0936D14089580916A1490919D
S214001A806B14A0916C14B0916D14892B8A2B8B2B40
S214001A9009F43FC01092501480910A0690910B06EC
S214001AA02DB73EB72E5131090FB6F8943EBF0FBE84
S214001AB02DBFADB7BEB711962EE1E0E5F4E101907B
S214001AC00D922A95E1F7BED780910A0690910B06F3
S214001AD02DB73EB72E5131090FB6F8943EBF0FBE54
S214001AE02DBFADB7BEB711962EE1E0E5F4E101904B
S214001AF00D922A95E1F70E94AC3780E18093B005FD
S214001B008DB79EB7CC960FB6F8949EBF0FBE8DBF0E
S214001B10089586E18093B005089590910A15913056
S214001B2019F0943029F50AC080910A018E5F8093DF
S214001B300A018430E8F090930A01089580910A0122
S214001B40813061F41092651410926A1410926B142E
S214001B5010926C1410926D1482E108C0833041F428
S214001B6081E080936514109253148AE18093B00547
S214001B70089580910A15813071F0843079F480914F
S214001B800B010E94191760910B0180910A06909133
S214001B900B060E94F03780E18093B005089580918F
S214001BA00A15813019F0843031F402C080E101C09A
S214001BB081E18093B005089580910A15813019F06F
S214001BC0843071F402C080E109C0809165148111EF
S214001BD002C082E103C0813019F48AE18093B00527
S214001BE0089580910A15843019F480E18093B00539
S214001BF0089580910A15813021F0843009F047C09D
S214001C0004C080E18093B00508951092501480912E
S214001C100B0180935C1480910A0690910B062DB7F9
S214001C203EB72E5131090FB6F8943EBF0FBE2DBFFA
S214001C30ADB7BEB711962EE1E0E5F4E101900D9246
S214001C402A95E1F7FFD680910A0690910B062DB7EC
S214001C503EB72E5131090FB6F8943EBF0FBE2DBFCA
S214001C60ADB7BEB711962EE1E0E5F4E101900D9216
S214001C702A95E1F70E94AC3780E18093B0058DB7D6
S214001C809EB7CC960FB6F8949EBF0FBE8DBF089534
S214001C9080910A15813019F0843031F402C080E159
S214001CA001C081E18093B00508958091B10585312A
S214001CB011F168F48131E1F028F48530B9F0803113
S214001CC009F515C08231A9F08431E1F413C08831DA
S214001CD0A9F028F4863181F08731A1F40EC08B314B
S214001CE079F08C3171F08A3169F409C074CB7BCB02
S214001CF095CDE7CD3ECF53CF5FCF73CF7ACF63CEB0
S214001D000CCFC6CF80E18093B005089510928A0567
S214001D1081E080930C050895809188149091891431
S214001D2090930F0580930E05089580910E0590916F
S214001D300F05909389148093881487E0E5EEF4E10C
S214001D40AAE8B4E101900D928A95E1F708952091F2
S214001D500E0530910F0521153105B9F12B303105EF
S214001D601CF4215031092DC02D3331055CF4C90116
S214001D706AE070E00E94DC97009709F01DC02A50C8
S214001D8031091FC0293681E038075CF4C9016CE3CD
S214001D9070E00E94DC97009709F00EC02C533109C2
S214001DA010C0213E80E1380784F4C90168E671E07E
S214001DB00E94DC97009719F0281B390B02C02856A2
S214001DC0314030930F0520930E05089520910E059F
S214001DD030910F052D33310524F0C9016CE370E016
S214001DE006C0121613065CF4C9016AE070E00E9491
S214001DF0DC97281B390B30930F0520930E05809136
S214001E000E0590910F058C33910514F40A9615C0B3
S214001E10883621E0920714F4CC960FC0803E20E16D
S214001E2092077CF488599E4F90930F0580930E0579
S214001E30813E904134F080EE90E190930F058093C0
S214001E400E05089580917405882321F080910D0574
S214001E50811104C061DF81E0809374058091B10533
S214001E60883031F580910A15823081F018F481307F
S214001E7029F505C0833061F0843001F50EC08093EB
S214001E800D0510920F0510920E05089560DF01C033
S214001E909DDF81E080930D05089510920D05109248
S214001EA0740543DF81D432DF81E080937B0508959B
S214001EB01092740531DF88E08093B00508951F9373
S214001EC0CF93DF93EC01633019F120F4613079F0A1
S214001ED0A8F406C0653021F178F16630E1F534C02B
S214001EE08A818F5F8A838831B0F11A8234C08981F3
S214001EF08F5F89838C3378F119822DC080916E14A0
S214001F008C3011F488E101C08CE080936E1423C0FD
S214001F108E818F5F8E838830F0F081E08E831BC0C9
S214001F201B811F5F1B836C818D810E94EF7C811754
S214001F3090F481E08B830FC08C818F5F8C838D3013
S214001F4050F081E08C8307C08D818F5F8D83833353
S214001F5010F08CE08D83DF91CF911F910895CF9381
S214001F60DF93EC01633041F120F4613091F0D0F45E
S214001F7007C0653049F198F1663009F03FC037C0B8
S214001F808A81811102C088E18A838A8181508A838E
S214001F9035C08981811102C08CE389838981815093
S214001FA089832CC080916E14883111F48CE001C0B6
S214001FB088E180936E1422C08E8181508E838111B9
S214001FC01DC087E08E831AC08B8181508B83811160
S214001FD015C06C818D810E94EF7C8B830FC08C8135
S214001FE081508C8381110AC08CE08C8307C08D8160
S214001FF081508D838B3011F482E38D83DF91CF91F6
S2140020000895CF92DF92EF92FF920F931F938091E5
S2140020100A158230B1F020F4813009F072C006C093
S2140020208330D1F0843009F06CC021C080910A055D
S2140020308F5F873018F480930A0563C010920A05F4
S21400204060C060910A058FE694E11F910F91FF90A2
S214002050EF90DF90CF9083CF60910A058FE694E1F2
S2140020601F910F91FF90EF90DF90CF9028CF1092A6
S2140020706F1420E0309170144091711450917214D6
S2140020806091731470917414809175140E94AD7CE5
S21400209087E0EFE6F4E1AAE8B4E101900D928A95B4
S2140020A0E1F780916E140E94041A80916E1480935A
S2140020B0A6147AD387E0EFE6F4E1ACE7B4E101904A
S2140020C00D928A95E1F7C0907614D0907714E09040
S2140020D07814F090791400917A1410917B14209162
S2140020E07C1430917D1440917E1450917F14609141
S2140020F08014709181148091821421D689E0809397
S214002100B0051F910F91FF90EF90DF90CF9008954C
S21400211080910A15813019F0843071F50BC08091DA
S21400212009058F5F843018F480930905089510928E
S21400213009050895809109058130B9F028F08230AC
S214002140B1F08330C9F415C08DE08093B00587E008
S214002150E5EEF4E1AFE6B4E101900D928A95E1F781
S2140021608091A61480936E1408958EE003C08FE0CD
S21400217001C089E18093B005089580910A158430E6
S21400218019F489E08093B005089580910A1584308B
S21400219019F489E08093B005089580910A1581307E
S2140021A019F0843091F408C089E08093B00510924D
S2140021B011011092851408C089E08093B005109232
S2140021C0110181E080938514BBC208958091B1050A
S2140021D08E3069F028F4893041F08D3059F406C00D
S2140021E08F3031F0893131F404C092CF0ACFC5CF99
S2140021F0CCCFD3CF89E08093B005089580910806B0
S214002200909109060E940F6886E080930C01109258
S2140022100B058AE08093B00508952091EB14FC012D
S21400222085E021932F5F283008F021E08150C9F720
S21400223008951092FE041092FD048FEF94E0EDDFF7
S21400224085E0E6E7F4E1A4E0B5E001900D928A951A
S214002250E1F7089524E030E0281B310981E090E0A2
S214002260022E01C0880F0A94EAF79091FD04982B7D
S2140022709093FD040895CF92DF92EF92FF920F9312
S2140022801F938091B1058B3009F072C080910A15BA
S2140022908230B1F020F4813009F06EC006C0833081
S2140022A0E9F0843009F068C02CC08091FE048F5F8E
S2140022B0853018F48093FE045FC01092FE045CC064
S2140022C08091FE04E82FF0E0EC5FFA4F9081915089
S2140022D0973908F401C096E990830CC08091FE04FB
S2140022E0E82FF0E0EC5FFA4F90819F5F973908F493
S2140022F0F3CF10821F910F91FF90EF90DF90CF9059
S214002300A9CF85E0E4E0F5E0A6E7B4E101900D9200
S2140023108A95E1F787E0E5EEF4E1ACE7B4E10190F9
S2140023200D928A95E1F71091FD0480917B14182B8D
S21400233010937B14C0907614D0907714E0907814A5
S214002340F090791400917A1420917C1430917D14C9
S21400235040917E1450917F14609180147091811486
S21400236080918214ECD4D2DC81E080937E0504C098
S21400237060DF8BE08093B0051F910F91FF90EF9088
S214002380DF90CF90089580914001843079F030F44A
S2140023908230A1F070F48130E1F40EC0863081F016
S2140023A088F0873099F08830A1F40EC00E9441086A
S2140023B010C00E9460080DC078DC0BC043DD09C069
S2140023C005DF07C01BDF05C056DF03C083E180932F
S2140023D0B00510920A1510923F010895809183056A
S2140023E0811102C081E023C080918205811102C064
S2140023F082E01DC080910F01813011F482E217C087
S21400240080911001813011F48EE111C080910D0190
S214002410813011F485E00BC080911401813011F4F5
S2140024208CE005C080918405811103C083E00C9484
S2140024309425089580911201813021F080E18093E7
S214002440870512C09091830591110EC08093870571
S214002450809188058F5F809388058A3028F01092D7
S214002460880582E08093830580918305813009F09A
S2140024707DC01092880580910F01813011F482E2B0
S21400248073C080911001813011F48EE16DC080918F
S2140024900D01813011F485E067C0809182058111BD
S2140024A002C082E061C080911401813011F48CE09A
S2140024B05BC080910E01811102C084E055C08091FE
S2140024C07705811102C08AE14FC08091760581119F
S2140024D002C08BE149C080911301882311F087E088
S2140024E043C080917C05811102C083E13DC080918C
S2140024F07B05813011F484E137C080917E05813000
S21400250011F488E131C080917D05811102C089E116
S2140025102BC080917905813011F487E125C0809128
S2140025208005811102C081E11FC080918105813044
S21400253011F48DE019C080917A05813011F48DE197
S21400254013C080917805813011F48FE00DC0809122
S2140025507505811102C080E207C0809111018111CA
S21400256002C08FE101C081E28093870580918705D4
S2140025700C94942580918505813009F02FCF5ACF91
S214002580F999FECF682F89E290E00C9478A0F9992B
S214002590FECF8BEF9FE00E946AA090930D0680937B
S2140025A00C06F999FECF8935924030F088E592E026
S2140025B090930D0680930C060895F999FECFBC0102
S2140025C08BEF9FE00E9486A0F999FECF0895F999B7
S2140025D0FECF4CE050E06DE170E00E9452A0F99909
S2140025E0FECF08958F929F92AF92BF92CF92DF92C6
S2140025F0EF92FF920F931F93CF93DF93CDB7DEB783
S214002600E5970FB6F894DEBF0FBECDBF7C011AAAC1
S2140026101BAA1CAA1DAA64E471E088248394912C4A
S2140026208C0E9D1EC4010E94319A0E94927C40919D
S214002630E5143091E6142091E7149091E814809107
S214002640E9141F924F931F923F931F922F931F924E
S2140026509F931F928F9328E631E03F932F938E012E
S2140026600A5D1F4F1F930F930E94299B9E012E5CAD
S2140026703F4F3F932F9323E731E03F932F931F93D2
S2140026800F930E94789B6AA97BA98CA99DA90E949A
S214002690DE9987010FB6F894DEBF0FBECDBFA12C22
S2140026A0B12C93E2C92ED12CE12CF12C0E94DB999F
S2140026B0A70196010E94EF97F401E60FF71F8081AD
S2140026C0F80181938F01FFEFAF1ABF0A84E0A816C6
S2140026D0B10461F7F999FECF44E050E06AE270E099
S2140026E08CEF94E10E946FA0E5960FB6F894DEBFDB
S2140026F00FBECDBFDF91CF911F910F91FF90EF904E
S214002700DF90CF90BF90AF909F908F9008958DEE02
S21400271094E15DDF8CEF94E165DF8DEE94E10E943D
S214002720EC92892B11F480E02BCF089581E0809302
S21400273083141092841410928514109286140895AF
S214002740F999FECF45E050E06EE270E083E894E150
S2140027500C946FA0F999FECF45E050E06EE270E071
S21400276083E894E10E9452A0F999FECF80918314E9
S2140027708F3F11F4DBDFE4CF0895CF93DF93EC01B6
S2140027800E94AF36009719F420E030E009C0BC0183
S214002790CE010E947C370097B9F3FC01208131817D
S2140027A0C901DF91CF910895F999FECF49E050E035
S2140027B063E370E088E894E10C946FA0AF92BF9258
S2140027C0CF92DF92EF92FF920F93F999FECF49E0F6
S2140027D050E063E370E088E894E10E9452A0F99923
S2140027E0FECF8091881490918914813E90410CF020
S2140027F02DC0A0908A14B0908B14C0908C14D090EA
S2140028008D14E0908E14F0908F1400919014209107
S214002810E5143091E6144091E7145091E814609165
S214002820E9147091EA148091EB140E94F37D97FDF1
S2140028300DC02091881430918914281B390B37FD60
S21400284005C0309389142093881404C0109289140C
S214002850109288140F91FF90EF90DF90CF90BF906A
S214002860AF900895CF92DF92EF92FF920F931F934F
S214002870CF93DF93CDB7DEB76F970FB6F894DEBF72
S2140028800FBECDBF7C01DEA82FE1C22E8E010F5FEA
S2140028901F4FD801EC2D1D92EA95E9F70E94AF363E
S2140028A0009701F5F999FECF6D2D8FEA90E00E9412
S2140028B078A0F999FECFDEAA8EE1FE01BA96DE0177
S2140028C0119601900D928A95E1F71F8E8D2D90E05E
S2140028D001972FE1289FB001299F700D11246055A4
S2140028E07F4F24C0BC01C7010E947C37DC01ED91FC
S2140028F0FC918EE1D80101900D928A95E1F7DF8E6A
S2140029008D8590E00197C89E9001C99E300D1124D8
S214002910B90160557F4FF999FECF4FE150E0CE01E7
S21400292001960E946FA0F999FECFC5CFF999FECF08
S2140029304FE150E0CE0101960E946FA0F999FECFBC
S21400294081E090E06F960FB6F894DEBF0FBECDBF65
S214002950DF91CF911F910F91FF90EF90DF90CF9076
S2140029600895CF92DF92EF92FF920F931F93CF932B
S214002970DF93CDB7DEB7ED970FB6F894DEBF0FBE88
S214002980CDBF6C01EE24E394F12CEC0EFD1E8FE11E
S214002990D7011D928A95E9F78E01005E1F4F8EE1E2
S2140029A0F80111928A95E9F765966FAD6597C601AD
S2140029B00E94C036BC01009799F18EE1FE01E85BEB
S2140029C0FF4FD70101900D928A95E1F76F5F7F4F19
S2140029D0C6010E947C37009759F0DC01ED91FC910E
S2140029E08EE1D80101900D928A95E1F78CA58F8F24
S2140029F08D8590E001972FE1289FB001299F700DEB
S214002A00112460557F4FF999FECF4FE150E0CE017B
S214002A1001960E946FA0F999FECF21E030E002C037
S214002A2020E030E0C901ED960FB6F894DEBF0FBE89
S214002A30CDBFDF91CF911F910F91FF90EF90DF9068
S214002A40CF9008950F931F93CF93DF93CDB7DEB744
S214002A508C016B890E94C036892B71F08EE1FE01D5
S214002A603796DF0101900D928A95E1F7C801DF9154
S214002A70CF911F910F9175CF8EE1FE013796DF0142
S214002A8001900D928A95E1F7C801DF91CF911F91D1
S214002A900F91E8CEEF92FF920F931F93CF93DF93A1
S214002AA0CDB7DEB76F970FB6F894DEBF0FBECDBFBB
S214002AB08C010E94C0369C01009709F46DC07C0111
S214002AC08FEFE81AF80AB90161507109F9F4B701F5
S214002AD0C8010E947C37009761F4F999FECF60E048
S214002AE08FEA90E00E9478A0F999FECF21E030E0CE
S214002AF055C0DC01ED91FC916485F999FECF8FEA13
S214002B0090E00E9478A0F999FECFF0CFC8010E940D
S214002B107C37DC01ED91FC918EE1DE01119601908F
S214002B200D928A95E1F7B701C8010E947C372D8582
S214002B300097B9F41F8E822F90E001972FE1289F0F
S214002B40B001299F700D112460557F4FF999FECF73
S214002B504FE150E0CE0101960E946FA0F999FECF9A
S214002B60C5CFDC01ED91FC9184858F8F822F90E09C
S214002B7001972FE1289FB001299F700D1124605501
S214002B807F4FF999FECF4FE150E0CE0101960E94AB
S214002B906FA0F999FECFAACF20E030E0C9016F966A
S214002BA00FB6F894DEBF0FBECDBFDF91CF911F9159
S214002BB00F91FF90EF9008950F931F93CF93DF939D
S214002BC0CDB7DEB7ED970FB6F894DEBF0FBECDBF1C
S214002BD0F999FECF8FEA90E00E9462A0F999FECFA5
S214002BE0813308F057C0882309F454C090E0019759
S214002BF02FE1289FB001299F700D112460557F4F4B
S214002C00F999FECF4FE150E0CE0101960E9452A006
S214002C10F999FECF1EE10FE1FE013196DE01909696
S214002C20812F01900D928A95E1F780910A06909186
S214002C300B062DB73EB72E5131090FB6F8943EBF9E
S214002C400FBE2DBFADB7BEB71196FE01B096212FB1
S214002C5001900D922A95E1F70E94AC378F8D0FB642
S214002C60F894DEBF0FBECDBF8823A1F090E0019799
S214002C70089FB001099F700D112460557F4FF99988
S214002C80FECF4FE150E0CE0101960E9452A0F99986
S214002C90FECFC2CFED960FB6F894DEBF0FBECDBF07
S214002CA0DF91CF911F910F910895F999FECF60E0C3
S214002CB08FEA90E00E9478A0F999FECF0895F999DE
S214002CC0FECF6AEA8CE190E00C9478A0F999FECFEA
S214002CD06FEF8CE190E00C9478A0F999FECF8CE130
S214002CE090E00E9462A0F999FECF8A3A19F481E03A
S214002CF0809385050895F999FECF40E650E06CE391
S214002D0070E082E195E00C946FA0F999FECF40E662
S214002D1050E06CE370E082E195E00E9452A0809162
S214002D201205909113058935924040F080E6E2E165
S214002D30F5E0DF011D928A95E9F7DDCF0895CF9281
S214002D40DF92EF92FF920F931F93CF93DF93CDB74F
S214002D50DEB72D970FB6F894DEBF0FBECDBFC98283
S214002D60DA82EB82FC820D831E832F8338874987A5
S214002D705A876B877C878D87F999FECF4DE050E0A8
S214002D806CE970E0CE0101960E946FA0F999FECF23
S214002D902D960FB6F894DEBF0FBECDBFDF91CF9154
S214002DA01F910F91FF90EF90DF90CF900895CF92F4
S214002DB0DF92EF92FF920F931F9345E050E064E698
S214002DC070E086E794E10E94689A10927B1444E6CD
S214002DD0C42E54E6D52E64E6E62E74E6F72E04E6F8
S214002DE010E020917C1430917D1440917E14509117
S214002DF07F146091801470918114809182149FDFFB
S214002E001F910F91FF90EF90DF90CF900895F99962
S214002E10FECF4DE050E06CE970E086E794E10E945A
S214002E2052A0F999FECF80917614873908F0BFCF6B
S214002E3008951F93CF93DF9300D000D000D0CDB776
S214002E40DEB7182FFE01319686E0DF011D928A95C7
S214002E50E9F7113308F04EC0612F80910A06909171
S214002E600B060E94C036BC0180910A0690910B06A4
S214002E700E947C370097F1F1DC01ED91FC91808196
S214002E808230C1F5F999FECF46E050E069EA70E07D
S214002E90CE0101960E9452A0F999FECF612F70E0F4
S214002EA0CB010197FC0197FF02C0FB013696A3E019
S214002EB0F595E795AA95E1F721E030E02C0F3D1F48
S214002EC0E20FF31F68E070E00E94DC9721E030E03C
S214002ED001C0220F8A95EAF7209580812823208357
S214002EE046E050E069EA70E0CE0101960E946FA0CD
S214002EF0F999FECF26960FB6F894DEBF0FBECDBF6B
S214002F00DF91CF911F9108951F93CF93DF9300D049
S214002F1000D000D0CDB7DEB7182FFE01319686E080
S214002F20DF011D928A95E9F71133B8F5F999FECFBE
S214002F3046E050E069EA70E0CE0101960E9452A099
S214002F40F999FECF212F30E0C9010197FC0197FFC8
S214002F5002C0F9013696B3E0F595E795BA95E1F724
S214002F6021E030E02C0F3D1FE20FF31F68E070E019
S214002F700E94DC9721E030E001C0220F8A95EAF734
S214002F808081822B808346E050E069EA70E0CE01C3
S214002F9001960E946FA0F999FECF26960FB6F89478
S214002FA0DEBF0FBECDBFDF91CF911F910895CF93A7
S214002FB0DF9300D000D000D0CDB7DEB7FE0131964B
S214002FC086E0DF011D928A95E9F7F999FECF46E083
S214002FD050E069EA70E0CE0101960E9452A0F9998D
S214002FE0FECF60913D0170913E01FE013196DE01FB
S214002FF0179680E01BC08F5F482F50E06417750758
S214003000C4F0408150E0022E02C0559547950A94C0
S214003010E2F740FF0FC0803361F02F5F3F4F28304C
S214003020310549F73196EA17FB0721F020E030E03A
S214003030E2CF80E026960FB6F894DEBF0FBECDBF77
S214003040DF91CF910895CF93DF9300D000D000D0CA
S214003050CDB7DEB70E94766B47E751E063E083E0CA
S2140030600E94216CF999FECF60E08CE190E00E940E
S21400307078A009E210E0F999FECF60E0C8010E944E
S21400308078A00F5F1F4F0F3C1105A9F74FDBF9998A
S214003090FECF45E050E06EE270E083E894E10E94E7
S2140030A06FA0F999FECF86E0E9E7F1E0DE01119620
S2140030B001900D928A95E1F746E050E069EA70E0EB
S2140030C0CE0101960E946FA0F999FECF60E080E6DF
S2140030D09BE00E9478A0F999FECF60E081E69BE035
S2140030E00E9478A0F999FECF6FEF7FEF8BEF9FE0FD
S2140030F00E9486A0F999FECF5ADEFFCF0F931F934A
S214003100CF93DF931F92CDB7DEB7F999FECF80E657
S2140031109BE00E9462A0182FF999FECF81E69BE003
S2140031200E9462A0082FF999FECF123318F40233DA
S21400313008F402C000E010E084E1089F900111242A
S214003140B9016E59744F44E150E0CE0108960E94D2
S2140031506FA0F999FECF101305C0212F2F5F2233E1
S214003160B9F019C0202F011740F42F5F211313C0A8
S214003170102F1E5F123370F40EC0101760F42F5F0E
S214003180223308F020E0211306C0122F1F5F03C071
S21400319020E001C010E0612F80E69BE029830E94BA
S2140031A078A02981F999FECF622F81E69BE00E94E4
S2140031B078A0F999FECF0F90DF91CF911F910F91D4
S2140031C00895EF92FF920F931F93CF93DF93CDB79F
S2140031D0DEB764970FB6F894DEBF0FBECDBF8C0186
S2140031E00E94AF36892B09F04EC0F999FECF80E6D3
S2140031F09BE00E9462A0E82EF999FECF81E69BE054
S2140032000E9462A0F999FECF91E39E15E0F1823309
S214003210D0F5E816C1F1882319F0F82EFA9402C00A
S21400322081E3F82E84E1F89E90011124B9016E59CD
S214003230744F44E150E0CE0101960E9452A0F999E5
S214003240FECF84E190E00E945698BC01009769F09A
S21400325084E1FE013196DB0101900D928A95E1F73B
S21400326041E050E0C8010E94D9366E2D80E69BE012
S2140032700E9478A0F999FECF6F2D81E69BE00E9410
S21400328078A0F999FECF64960FB6F894DEBF0FBE0D
S214003290CDBFDF91CF911F910F91FF90EF900895D2
S2140032A0FF920F931F93CF93DF938C01FC01C28193
S2140032B0D38194E1F92E1FC0E881F9818DB79EB7BE
S2140032C044970FB6F8949EBF0FBE8DBFADB7BEB77E
S2140032D011968F2D01900D928A95E1F7C8010EDFA9
S2140032E00A80DB81C02DEDB7FEB774960FB6F89452
S2140032F0FEBF0FBEEDBF2097F9F6DF91CF911F916D
S2140033000F91FF900895F999FECF4CE050E06DE1E3
S21400331070E00E946FA081E033C98153863330F499
S214003320E82FF0E0E557FE4F8081089580E008958D
S214003330F999FECF89E290E00E9462A0F999FECF4B
S2140033400895BF92CF92DF92EF92FF920F931F9352
S214003350CF93DF93CDB7DEB72C970FB6F894DEBFCA
S2140033600FBECDBF6C018E010F5F1F4F8CE0F801C2
S21400337011928A95E9F7DCDF813029F54CE050E0C0
S2140033806DE170E0C8010E9452A0F999FECF8E014F
S2140033900E5F1F4F76016E01FEE0CF0ED11CF801C6
S2140033A031978081BADFB82EF8018081B6DFF0E170
S2140033B0BF9E800D1124F70181937F010E5F1F4F82
S2140033C00C151D0561F72C960FB6F894DEBF0FBEE0
S2140033D0CDBFDF91CF911F910F91FF90EF90DF90BF
S2140033E0CF90BF900895F999FECF682F81E090E0C6
S2140033F00C9478A0F999FECF81E090E00E9462A03C
S214003400F999FECF90E00895F999FECF682F82E0F3
S21400341090E00C9478A0CF93DF93EC01F999FECF5F
S21400342082E090E00E9462A08C3019F0883109F0AA
S21400343088E18883DF91CF91089580913B01909138
S2140034403C010895CF93482FC92FE0913B01F0919E
S2140034503C012AE030E0CF01B9010E94DC979F933F
S2140034608F93CB01B9010E94DC979F938F93CF0176
S21400347064E670E00E94DC97CB01B9010E94DC97FD
S2140034809F938F9327E831E03F932F93CF934F93EB
S2140034900E94299B8DB79EB70A960FB6F8949EBFDA
S2140034A00FBE8DBFCF910895AF92BF92CF92DF929D
S2140034B0EF92FF920F931F93CF93DF93CDB7DEB7B4
S2140034C060970FB6F894DEBF0FBECDBFA982BA8252
S2140034D0CB82DC82ED82FE820F83188729873A87AB
S2140034E04B875C876D877E878F87F999FECF8FE93C
S2140034F096E00E9462A0182FF999FECF80EA96E027
S2140035000E9462A0082FF999FECF113518F40135F4
S21400351008F402C000E010E08FE0089F900111243C
S214003520B9016F55794F4FE050E0CE0101960E94E9
S2140035306FA0F999FECF101305C0212F2F5F2135FC
S214003540B9F019C0202F011740F42F5F211313C0C4
S214003550102F1E5F113570F40EC0101760F42F5F29
S214003560213508F020E0211306C0122F1F5F03C08C
S21400357020E001C010E0612F8FE996E0288B0E94C2
S21400358078A02889F999FECF622F80EA96E00E94FB
S21400359078A0F999FECF60960FB6F894DEBF0FBEFE
S2140035A0CDBFDF91CF911F910F91FF90EF90DF90ED
S2140035B0CF90BF90AF900895BF92CF92DF92EF92D8
S2140035C0FF920F931F93CF93DF93CDB7DEB72F975E
S2140035D00FB6F894DEBF0FBECDBF7C010E94AF369B
S2140035E0E114F10421F488E096E00E949A36F999F5
S2140035F0FECF8FE996E00E9462A0D82EF999FECF02
S21400360080EA96E00E9462A0C82EF999FECF80E577
S2140036108D15A0F18C1590F1DC1481F12FE0B22EFF
S2140036208FE0D89EB00111246F55794F4FE050E0DF
S214003630CE0101960E9452A0F999FECF8FE090E04D
S2140036400E9456988C01009791F0FE013196DC019D
S2140036508B2D01900D928A95E1F7C7010E94AF3637
S214003660AC014F5F5F4FB801C7010E94D936D394B3
S21400367080E58D1508F4D12CDC10D2CF2F960FB62E
S214003680F894DEBF0FBECDBFDF91CF911F910F9193
S214003690FF90EF90DF90CF90BF900895DF92EF926B
S2140036A0FF920F931F93CF93DF93CDB7DEB72F977D
S2140036B00FB6F894DEBF0FBECDBFDC0112960D919B
S2140036C01C911397F999FECF8FE996E00E9462A0AD
S2140036D0E82EF999FECF80EA96E00E9462A0F82EC6
S2140036E0F999FECFB0E5BE1518F0BF1508F001C079
S2140036F0F12CEF2C3FE0D32E41C0D801ED91FC9188
S214003700DE0111968D2D01900D928A95E1F7F80154
S21400371002811381F999FECFFFE0FF9E90011124EC
S214003720B9016F55794F4FE050E0CE0101960E94E7
S2140037306FA0F999FECFEF1005C08E2D8F5F8135F3
S214003740C8F41BC08F2DFE1450F48F5F8E1103C07B
S214003750EF2CE394E39490E59E1570F00EC0EF1402
S21400376060F48F5F813508F080E08E1106C0E82E89
S214003770E39403C080E001C0E12CF82E011511058A
S21400378009F0BBCF6E2D8FE996E00E9478A0F999DC
S214003790FECF6F2D80EA96E00E9478A0F999FECFC2
S2140037A02F960FB6F894DEBF0FBECDBFDF91CF9138
S2140037B01F910F91FF90EF90DF900895AF92BF9208
S2140037C0CF92DF92EF92FF920F931F93CF93DF93E8
S2140037D0CDB7DEB76E970FB6F894DEBF0FBECDBF7F
S2140037E0A88AB98ACA8ADB8AEC8AFD8A0E8B1F8B66
S2140037F0288F398F4A8F5B8F6C8F7D8F8E8FF999CC
S214003800FECF8FE996E00E9462A0F82EF999FECFCF
S21400381080EA96E00E9462A0E82EF999FECF80E545
S2140038208F1548F18E1538F1FE1429F1F999FECF5F
S2140038308FE0F89E800111240F55194F4FE050E09D
S214003840B801CE0101960E9452A0F999FECF998147
S214003850888998130AC04FE050E0B801CE01409620
S2140038600E946FA0F999FECF06C0F39480E58F15ED
S214003870D8F6F12CD9CF6E960FB6F894DEBF0FBEF1
S214003880CDBFDF91CF911F910F91FF90EF90DF900A
S214003890CF90BF90AF900895CF93F999FECF8FE960
S2140038A096E00E9462A0C82FF999FECF80EA96E0C3
S2140038B00E9462A0F999FECFC13510F4813578F0E8
S2140038C060E08FE996E00E9478A0F999FECF60E06C
S2140038D080EA96E00E9478A0F999FECF0BC06C2F84
S2140038E06F5F613509F460E08FE996E00E9478A08A
S2140038F0F999FECFCF910895F0D90E9487135CD92D
S2140039000E94AA130E94DE1300DA81DA0E94C71210
S21400391080910806909109064FCE0E94766B41EC86
S21400392051E061E084E00E94BF6C2FEB87E299E0F3
S214003930215080409040E1F700C0000085ED91E006
S2140039400E94CB8E8FE59AEE0197F1F700C000003B
S21400395089ED91E00E94CB8E9FE729EA83E09150A3
S21400396020408040E1F700C000008DED91E00E940D
S214003970E2910E947F91A89561E08FEF9FE00E9400
S21400398078A0F999FECFFFCF8091B105863011F06F
S214003990803111F40E94766B1092720581E080935C
S2140039A00B0110920E0180910A0690910B060E9460
S2140039B02A3B02C980918605813019F480938105DF
S2140039C0089580910606909107066ADC80910606A7
S2140039D0909107060C942A3B8F929F92AF92BF92CB
S2140039E0CF92DF92EF92FF920F931F93CF93DF93C6
S2140039F09091400180918C05981731F010928005C7
S214003A008091400180938C058090EC059090ED05A8
S214003A10D091EE05C091EF05B091F005A091F105AB
S214003A20F091F205E091F305A090E405B090E5056D
S214003A30C090E605D090E705E090E805F090E9052F
S214003A400091EA051091EB0594014D2F5C2F6B2F2A
S214003A507A2F8F2F9E2F0E941F9879F18092E4056F
S214003A609092E505D093E605C093E705B093E80588
S214003A70A093E905F093EA05E093EB0510927F0525
S214003A80109277052091FC053091FD054091FE05CA
S214003A905091FF0560910006709101068091020624
S214003AA090910306A0E00E94289821F410920B053E
S214003AB081DF03C081E080930B059091140680910E
S214003AC08D05981731F01092760580911406809334
S214003AD08D05DF91CF911F910F91FF90EF90DF90B2
S214003AE0CF90BF90AF909F908F900895AF92BF9267
S214003AF0CF92DF92EF92FF920F931F93A0907C14C9
S214003B00B0907D14C0907E14D0907F14E090801406
S214003B10F0908114009182142091E5143091E614FF
S214003B204091E7145091E8146091E9147091EA14FA
S214003B308091EB140E94C47D892BD1F1E7E7F4E174
S214003B40A6E7B4E180E090E024E631913D9384302E
S214003B50910511F420937A14019685309105A9F702
S214003B6087E0E5EEF4E1ACE7B4E101900D928A95CA
S214003B70E1F7C0907614D0907714E0907814F09027
S214003B80791400917A1410917B1420917C14309152
S214003B907D1440917E1450917F1460918014709132
S214003BA0811480918214CBD80E94191110927D0541
S214003BB01F910F91FF90EF90DF90CF90BF90AF9046
S214003BC0089580910A0690910B060E940E389093F5
S214003BD0AF058093AE05009789F12DB73EB72E51FD
S214003BE031090FB6F8943EBF0FBE2DBFADB7BEB7B6
S214003BF011962EE1FC0101900D922A95E1F70E94A4
S214003C00F53B2DB73EB7225E3F4F0FB6F8943EBF4A
S214003C100FBE2DBFE091AE05F091AF05892B39F0B0
S214003C208081823059F081E080937A05089564851A
S214003C3080910A0690910B060C94F0370895B7D938
S214003C408093A014882319F081E080937905089565
S214003C5080918B058C3048F010928B0580910B0577
S214003C60811103C081E0BFDBFFCF08952091860558
S214003C70222381F020910B0521110CC0A2DA80913D
S214003C800606909107060E94AF36892B19F081E050
S214003C9080938105089561E070E08EE895E00E94CB
S214003CA0FB8062E070E082E995E00E94FB806CE3B6
S214003CB070E086E995E00E94FB8068E770E08AE99C
S214003CC095E00E94FB8060EE71E08EE995E00E9430
S214003CD0FB8060E17EE082EA95E00E94FB8060E285
S214003CE07CE183E994E10E94FB8060E478E386EA65
S214003CF095E00E94FB806CE070E08AEA95E00C9408
S214003D00FB808EE895E00E940F81892B61F08EE89B
S214003D1095E00E94058181E08093340180918A05B8
S214003D208F5F80938A0582E995E00E940F81892B38
S214003D3009F43EC082E995E00E94058180918905DC
S214003D408F5F809389057BDF3CDFD0DE8091100596
S214003D5090911105009729F0019790931105809393
S214003D60100580918605811103C04AE264E103C014
S214003D7040E264E180E00E948C6C0E942A6680919A
S214003D80A5148F5F8093A514833090F08CE090E0AC
S214003D9090933E0180933D012091911430919214AE
S214003DA02C30310529F09093921480939114ECDD19
S214003DB08AEA95E00E940F81892B39F08AEA95E01D
S214003DC00E94058181E080934D1486E995E00E946B
S214003DD00F81892B21F086E995E00E9405818AE90A
S214003DE095E00E940F81892BF1F08AE995E00E9408
S214003DF005810E94987280918814909189141816F3
S214003E0019062CF401979093891480938814809156
S214003E100B05813011F4109277051ADF80910606A3
S214003E209091070623DF8EE995E00E940F81892B8B
S214003E3031F08EE995E00E9405811092830582EAB2
S214003E4095E00E940F81892BF1F082EA95E00E94AE
S214003E5005818091881490918914892B19F081E04E
S214003E6080937B0580910B0581110DC010927C0517
S214003E7010927D0581E08093140180EB94E090938E
S214003E8042018093410183E994E10E940F81892BCE
S214003E9081F083E994E10E94058180918B058F5F14
S214003EA080938B0580910B05811103C081E0809380
S214003EB0780586EA95E00E940F81892B71F086EAE4
S214003EC095E00E94058180910B05811106C080ED6A
S214003ED097E0909342018093410108958F929F92BC
S214003EE0AF92BF92CF92DF92EF92FF920F931F9303
S214003EF0CF93DF9300D000D0CDB7DEB78B011C8206
S214003F001B821A8219829E012F5F3F4F3F932F9389
S214003F109E012D5F3F4F3F932F9320E931E03F9363
S214003F202F939F938F930E94789B5C016B817C817B
S214003F30882777FD8095982F0E94FB946B017C0163
S214003F4089809A80B401882777FD8095982F0E94F3
S214003F50FB940FB6F894DEBF0FBECDBFB7FC1FC0F4
S214003F603AE0831691042CF020E030E048EC52E46E
S214003F7004C020E030E040E251E40E9460949B01DF
S214003F80AC016C2D7D2D8E2D9F2D0E94F893F8018F
S214003F906083718382839383AA24A394B12CC50182
S214003FA00F900F900F900F90DF91CF911F910F9170
S214003FB0FF90EF90DF90CF90BF90AF909F908F9044
S214003FC008950F931F93CF93DF93CDB7DEB7619716
S214003FD00FB6F894DEBF0FBECDBF182F092FCB014A
S214003FE0FE0131962FE0DF011D922A95E9F7BA010E
S214003FF0488B598B0E94B29A48895989009719F4C0
S21400400020E030E03AC0DA01FD0101900020E9F737
S2140040103197EA1BFB0BE80FF91F8081823209F407
S214004020319680818A3361F78181823239F4329603
S21400403006C08D93A217B30739F4E2CF3196DE019E
S21400404011969E01245F3F4F8191982F90539A308E
S21400405080F30F931F9386E991E09F938F93CE0191
S21400406001969F938F930E94789B0F900F900F90CE
S2140040700F900F900F9021E030E0C90161960FB6C7
S214004080F894DEBF0FBECDBFDF91CF911F910F9189
S21400409008950F931F93CF93DF9300D0CDB7DEB76D
S2140040A08C01CB01BA0149835A830E94B29A498196
S2140040B05A81009741F1DA01FD0101900020E9F7ED
S2140040C03197EA1BFB0BE80FF91F8081823209F457
S2140040D0319680818A33B9F48181823211F031962B
S2140040E001C03296D80101C08D938191823221F4AD
S2140040F01C9221E030E009C08B33D1F38D37C1F339
S2140041008111F2CFF5CF20E030E0C9010F900F907B
S214004110DF91CF911F910F910895CF92DF92EF928A
S214004120FF920F931F93CF93DF93CDB7DEB72797FA
S2140041300FB6F894DEBF0FBECDBF6C01CB01FE01FB
S214004140319625E0DF011D922A95E9F7BA014E83E4
S2140041505F830E94B29A4E815F81009719F420E037
S21400416030E04FC0DA01FD0101900020E9F73197F9
S214004170EA1BFB0BE80FF91F8081823209F43196A7
S21400418080818A3361F78181823211F0319601C0D5
S21400419032967F01860110C08C3221F08A3311F0EE
S2140041A08D3261F4CE0101960E94E799F801819361
S2140041B08F0119821A821B8290E00EC0282F20538E
S2140041C02A3068F6E1E0F0E0EC0FFD1FE90FF11D84
S2140041D080839F5F943018F6D7018D917D018232DF
S2140041E049F4CE0101960E94E799F801808321E008
S2140041F030E007C08B33A9F3882399F3863261F643
S214004200F0CFC90127960FB6F894DEBF0FBECDBF1C
S214004210DF91CF911F910F91FF90EF90DF90CF909D
S2140042200895BF92CF92DF92EF92FF920F931F9363
S214004230CF93DF93CDB7DEB727970FB6F894DEBFE0
S2140042400FBECDBF7C01CB01FE01319625E0DF011C
S2140042501D922A95E9F7BA014E835F830E94B29AAF
S2140042604E815F81009719F420E030E058C0DA01F3
S214004270FD0101900020E9F73197EA1BFB0BE80FE0
S214004280F91F8081823209F4319680818A3361F782
S2140042908181823211F0319601C032966F0187011A
S2140042A090E0EE24E394F12CEC0EFD1E35E0B32EE8
S2140042B020C08C3221F08A3311F08D3271F4C701A0
S2140042C00E94E799F801819391938F01D701EB2D16
S2140042D01D92EA95E9F790E00CC0282F20532A306B
S2140042E018F6F701E90FF11D80839F5F943008F000
S2140042F0BBCFD6018D916D01823251F4CE0101966D
S2140043000E94E799F8019183808321E030E007C09E
S2140043108B33A1F3882391F3863259F6EFCFC90188
S21400432027960FB6F894DEBF0FBECDBFDF91CF91B4
S2140043301F910F91FF90EF90DF90CF90BF90089560
S2140043403F924F925F926F927F928F929F92AF9220
S214004350BF92CF92DF92EF92FF920F931F93CF936D
S214004360DF93CDB7DEB7C954D1090FB6F894DEBFD8
S2140043700FBECDBF5C013B018E01085B1F4FF801ED
S2140043801182108228961FAE1EAE289726961FAE64
S2140043901EAE269724961FAE1EAE249722961FAEFC
S2140043A01EAE22971FAE1EAE1DAE1CAE1BAE1AAEC4
S2140043B042EE51E0BC01CE01CA9603DE892B41F4E1
S2140043C01BAA1CAA1DAA1EAA1FAA18AE19AE07C1B0
S2140043D0CC24C394D12CCC0EDD1E82E3F6011192C0
S2140043E08A95E9F7A301B501C60153DE6BEE71E0CD
S2140043F0C6010E944F9A009781F01F930F932DEEEF
S21400440031E03F932F939F938F930E94579B0F907B
S2140044100F900F900F900F900F906BEE71E080E072
S21400442090E00E944F9A009799F09E012A5B3F4FBA
S2140044303F932F932DEE31E03F932F939F938F93CF
S2140044400E94579B0F900F900F900F900F900F9019
S2140044506BEE71E080E090E00E944F9A009799F032
S2140044609E012C5B3F4F3F932F932DEE31E03F9301
S2140044702F939F938F930E94579B0F900F900F90B0
S2140044800F900F900F906BEE71E080E090E00E942E
S2140044904F9A009799F09E012E5B3F4F3F932F93C4
S2140044A02DEE31E03F932F939F938F930E94579B5F
S2140044B00F900F900F900F900F900F906BEE71E093
S2140044C080E090E00E944F9A009799F09E01205C51
S2140044D03F4F3F932F932DEE31E03F932F939F93C3
S2140044E08F930E94579B0F900F900F900F900F90F6
S2140044F00F906BEE71E080E090E00E944F9A00977C
S21400450099F09E01225C3F4F3F932F932DEE31E0B2
S2140045103F932F939F938F930E94579B0F900F90DC
S2140045200F900F900F900F906BEE71E080E090E090
S2140045300E944F9A009799F09E01245C3F4F3F934C
S2140045402F932DEE31E03F932F939F938F930E94EE
S214004550579B0F900F900F900F900F900F902A96EA
S214004560CEACDFAC2A9728960EAD1FAD28972696C0
S214004570AEADBFAD269724962EAD3FAD24972296BE
S214004580EEADFFAD22976EAD7FAD4CAD5DADC80113
S2140045908C0D9D1D8A0F9B1F820F931F8E0F9F1FD2
S2140045A0860F971F840F951FAAACBBACA816B9063A
S2140045B079F470E3372E3C0C402E5A2E2115310527
S2140045C011F0F22E02C057E0F52E8E2E962EE42E17
S2140045D0EBAA9CAA8DAA5EAA4FAA38AEF9AE2BA962
S2140045E03CA94DA95EA96FA978AD89AD90E0C75BDF
S2140045F0DF4F0FB6F894DEBF0FBECDBFDF91CF9171
S2140046001F910F91FF90EF90DF90CF90BF90AF90EB
S2140046109F908F907F906F905F904F903F900895FF
S214004620BF92CF92DF92EF92FF920F931F93CF939A
S214004630DF93CDB7DEB7CC59D1090FB6F894DEBFFD
S2140046400FBECDBF6C017E0141E9E40EF11C8CE08B
S214004650D7011D928A95E9F78E010F591F4F80E307
S214004660F80111928A95E9F7FE01319680E6DF019E
S2140046701D928A95E9F769E971E0C7010E94319AAF
S214004680A701B601C80149DD892B19F420E030E006
S21400469056C07801C801C096F80121912133B0F7C1
S2140046A0E817F907D1F764EA71E0CE018F569F4FFD
S2140046B00E94319AAE014F565F4FB601CE01019669
S2140046C0B0DD892B19F3CC24C394D12CCC0EDD1E7F
S2140046D0CE018F599F4FF6012191319129353240F5
S2140046E0A8F6E817F907C1F7809140018330D1F4A6
S2140046F021E030E024C0A895F70181917F0188234E
S214004700B9F3482F50E02417350794F3D6012D91BE
S2140047103D916D01B29EB001B39E700D11240E94B2
S214004720B13A02C0FCE3BF2E20913D0130913E011C
S214004730C701801B910B82179307ECF2D9CFC901F2
S214004740C456DF4F0FB6F894DEBF0FBECDBFDF9165
S214004750CF911F910F91FF90EF90DF90CF90BF9079
S2140047600895CF92DF92EF92FF920F931F93CF930D
S214004770DF93CDB7DEB7EF970FB6F894DEBF0FBE68
S214004780CDBF6C018E010F5C1F4F8FE0F8011192B8
S2140047908A95E9F7EE24E394F12CEC0EFD1E80E3F7
S2140047A0F70111928A95E9F76CEA71E0C8010E9458
S2140047B0319AA801B601C701B0DC892B01F1F701D7
S2140047C081918133E0F4E017F107D1F78091400141
S2140047D0833019F421E030E014C0A895F701619108
S2140047E07F01862F81508033A8F78091080690912C
S2140047F009060E942068E016F10679F7EBCF20E064
S21400480030E0C901EF960FB6F894DEBF0FBECDBFFD
S214004810DF91CF911F910F91FF90EF90DF90CF9097
S2140048200895CF92DF92EF92FF920F931F93CF934C
S214004830DF93EC016A017B010097C1F120E030E0D4
S21400484048EC52E4C701B6010E9402960E94C89442
S2140048500AE010E0CB01B8010E94DC979F938F938B
S21400486020E030E040E251E4C701B6010E94029623
S2140048700E94C894CB01B8010E94DC979F938F9347
S214004880C701B6010E94C8947F936F9387EB91E0AF
S2140048909F938F93DF93CF930E94299B8DB79EB7EC
S2140048A00A960FB6F8949EBF0FBE8DBFDF91CF91CC
S2140048B01F910F91FF90EF90DF90CF9008958F9209
S2140048C09F92AF92BF92CF92DF92EF92FF920F939A
S2140048D01F93CF93DF93CDB7DEB7AA970FB6F894A2
S2140048E0DEBF0FBECDBF6C01B62EA72E8091080688
S2140048F0909109060E94AF3624E18E010B5E1F4F91
S214004900F801322F11923A95E9F7EE24E394F12C50
S214004910EC0EFD1EF70111922A95E9F78C159D0500
S2140049200CF445C01C141D040CF041C0B601809167
S2140049300806909109060E947C370097C1F1FC0199
S214004940C080D180F6016481758180E090E00E948D
S214004950F9944C01F60180811F928F932FEB31E082
S2140049603F932F931F930F9369A77AA70E94299BC3
S21400497020E030E040E752E469A57AA5882D992D1D
S2140049800E946094AB01BC01C7014BDFFF92EF921F
S2140049901F930F9382EC91E09F938F93AF92BF92F9
S2140049A00E94299B0FB6F894DEBF0FBECDBFAA9615
S2140049B00FB6F894DEBF0FBECDBFDF91CF911F912B
S2140049C00F91FF90EF90DF90CF90BF90AF909F90A9
S2140049D08F900895AF92BF92CF92DF92EF92FF92A0
S2140049E00F931F93CF93DF93CDB7DEB764970FB6C1
S2140049F0F894DEBF0FBECDBF6C01EE24E394F12C1D
S214004A00EC0EFD1E84E1F70111928A95E9F780917C
S214004A100806909109060E94AF365C0101E010E09E
S214004A2017C08091831490E080179107A4F002309D
S214004A3011052CF060EF71E0C6010E946F9AB70175
S214004A40C8013DDFB701C6010E946F9A0F5F1F4F76
S214004A50A016B10634F764960FB6F894DEBF0FBE04
S214004A60CDBFDF91CF911F910F91FF90EF90DF9018
S214004A70CF90BF90AF900895AF92BF92CF92DF9243
S214004A80EF92FF920F931F93CF93DF93CDB7DEB7CE
S214004A9064970FB6F894DEBF0FBECDBF7C01809141
S214004AA00806909109060E94AF366C01FE01319609
S214004AB084E1DF011D928A95E9F70091831410E0E6
S214004AC00F5F1F4FBE2EAF2E1BC02091831430E009
S214004AD02F5F3F4F201731072CF460EF71E0C701BE
S214004AE00E946F9A6B2D7A2DC801E9DE6B2D7A2D08
S214004AF0C7010E946F9A0D3011052CF40F5F1F4FEF
S214004B00C016D10614F764960FB6F894DEBF0FBE33
S214004B10CDBFDF91CF911F910F91FF90EF90DF9067
S214004B20CF90BF90AF9008952F923F924F925F9292
S214004B306F927F928F929F92AF92BF92CF92DF92A8
S214004B40EF92FF920F931F93CF93DF93CDB7DEB70D
S214004B50CF59D1090FB6F894DEBF0FBECDBFFE0108
S214004B60E956FF4F96E0DF011D929A95E9F78132EC
S214004B7009F490C58232F9F40E9455608C0182EFE8
S214004B8091E00E943C60AC016FEF71E0C8010E94AA
S214004B90F05F87EA94E10E943C60AC0166E072E058
S214004BA0C8010E94F05F85E191E00E943C60AC0184
S214004BB06AE072E054C58E3189F50E9455608C011A
S214004BC08EE092E00E943C60AC016FEF71E0C8019D
S214004BD00E94F05F87EA94E10E943C60AC0166E0C8
S214004BE072E0C8010E94F05F85E191E00E943C609F
S214004BF0AC016AE072E0C8010E94F05F60E070E01D
S214004C0080E89FE30E941960AC0169E972E0C80180
S214004C100E94F05F82E08093100124C5853031F455
S214004C200E9455608C018AE192E071C48A3109F0D5
S214004C3059C0EE24E394F12CEC0EFD1E82E8F70139
S214004C4011928A95E9F76E01F3E8CF0ED11C84E144
S214004C50D6011D928A95E9F70E9455608C0160E0A6
S214004C6070E088E493E40E941960AC0160E272E0B0
S214004C70C8010E94F05F0E9455605C01AC0166E2CC
S214004C8072E0C8010E94F05FC601A4DEC6010E9461
S214004C903C60AC016BE272E0C5010E94F05FC701A8
S214004CA0EBDEC7010E943C60AC016FE272E0C5011A
S214004CB00E94F05F86E392E00E943C60AC016DE3E8
S214004CC072E0C8010E94F05F81E0809377050115CD
S214004CD0110509F4D1C4C8010E94B25F7C010E948C
S214004CE08972CCC48130D1F40E9455608C0182E474
S214004CF092E00E943C60AC016FEF71E0C8010E9438
S214004D00F05F8DEE94E10E94EC92892B09F02EC1A3
S214004D1080E00E94C0120E94B272A4C48230F9F4ED
S214004D200E9455608C0180E592E00E943C60AC01D8
S214004D306FEF71E0C8010E94F05F87EA94E10E947D
S214004D403C60AC0166E072E0C8010E94F05F8CEF48
S214004D5094E10E943C60AC0166E572E080C483305A
S214004D6031F40E9455608C018AE592E0D0C384300D
S214004D7039F50E9455608C0187E692E00E943C60FF
S214004D80AC016FEF71E0C8010E94F05F87EA94E122
S214004D900E943C60AC0166E072E0C8010E94F05FD1
S214004DA060913D0170913E01882777FD8095982F90
S214004DB00E94FB940E941960AC016FE672E04FC43B
S214004DC08C3059F5EE24E394F12CEC0EFD1E87E0B2
S214004DD0F70111928A95E9F70E9455608C0183E7E6
S214004DE092E00E943C60AC016FEF71E0C8010E9447
S214004DF0F05F87EA94E10E943C60AC0166E072E0F6
S214004E00C8010E94F05FC7010E94221AC7010E94D3
S214004E103C60AC016FE772E022C48D3009F097C0A9
S214004E20CC24C394D12CCC0EDD1E89E1D6011D9274
S214004E308A95E9F780910606909107060E94BD13B1
S214004E407C01FC01828193818133910528F42481C1
S214004E50263010F4892BD9F4809106069091070627
S214004E600E94E73B80910606909107060E94E11893
S214004E7080910606909107060E94AF36892B21F096
S214004E8081E08093810506C41092810503C4E11475
S214004E90F10409F4FAC30E9455608C0183E892E09D
S214004EA00E943C60AC016FEF71E0C8010E94F05FA9
S214004EB087EA94E10E943C60AC016EE974E0C801A8
S214004EC00E94F05FD7011D968C911D971F928F93BD
S214004ED01E968C911E971F928F931F968C911F97EC
S214004EE01F928F9350968C9150971F928F93519646
S214004EF08C9151971F928F9352968C9152971F9236
S214004F008F9315968C9115971F928F9314968C916C
S214004F1014971F928F9311968C9111978F938C9163
S214004F208F9313968C9113978F9312968C918F93E1
S214004F3088EC91E09F938F93DF92CF920E94299BFB
S214004F40C6010E943C60AC0160EC74E0D0C28031C7
S214004F50A9F40E9455608C0188E892E00E943C60AB
S214004F60AC016FEF71E0C8010E94F05F8DEE94E136
S214004F700E943C60AC016CE472E071C3873031F48F
S214004F800E9455608C018EE892E0C1C2813109F022
S214004F9049C00E9455608C0187E992E00E943C60FF
S214004FA0AC016FEF71E0C8010E94F05F87EA94E100
S214004FB00E943C60AC0166E072E0C8010E94F05FAF
S214004FC080914001843089F038F48230E1F080F43A
S214004FD0813009F047C30FC08630C1F0D0F087306B
S214004FE0F1F0883009F03EC317C08DE493E005C0A9
S214004FF080EA92E002C084EA92E00E943C60AC0143
S21400500069E972E02CC387EA92E0F7CF8BEA92E078
S214005010F4CF80EB92E0F1CF83EB92E0EECF86EB1D
S21400502092E0EBCF833131F40E9455608C0189EB1E
S21400503092E06DC2843181F50E9455608C018BEC44
S21400504092E00E943C60AC016FEF71E0C8010E94E4
S214005050F05F87EA94E10E943C60AC0166E072E093
S214005060C8010E94F05F809189148F938091881404
S2140050708F9383EF91E09F938F937E01F7E9EF0E76
S214005080F11CFF92EF920E94299BC7010E943C6090
S214005090AC0161ED72E0AFC28D3109F04FC1FE0187
S2140050A0319682E3DF011D928A95E9F7FE01ED57FE
S2140050B0FF4F84E1DF011D928A95E9F7C356DF4F63
S2140050C0188219821A82CD59D040E091AE05F0912F
S2140050D0AF058081811102C081E080830E94556007
S2140050E08C0188ED92E00E943C60AC016FEF71E0AD
S2140050F0C8010E94F05F87EA94E19F938F9386EF42
S21400510091E09F938F93EE24E394F12CEC0EFD1E1A
S214005110FF92EF920E94299BC7010E943C60AC015F
S21400512066E072E0C8010E94F05FE091AE05F09183
S214005130AF0584851F928F9389EF91E09F938F939D
S214005140FF92EF920E94299BC7010E943C60AC012F
S21400515064EE72E0C8010E94F05F82E3F7011192EC
S2140051608A95E9F7E091AE05F091AF0585890FB60F
S214005170F894DEBF0FBECDBF811149C0712CC12C83
S214005180D12C3CEF832E31E0932E5E0133E8A30E44
S214005190B11C739487E0781201C0712CE091AE05C3
S2140051A0F091AF05238130E00C2C02C03595279591
S2140051B00A94E2F720FF12C01F927F929F928F926E
S2140051C0BF92AF920E94299BB501C7010E946F9AB9
S2140051D00F900F900F900F900F900F909FEFC91A9F
S2140051E0D90AA7E0CA16D104A1F6CE0101960E94FC
S2140051F03C60AC0169EE72E0C8010E94F05F64E3B7
S21400520073E0CE0183569F4F0E948E9A2CC0813049
S21400521051F5428D538D648D758D5F934F93AB0121
S214005220772757FD7095672F5F934F938FEF91E029
S2140052309F938F93FF92EF920E94299BC7010E9433
S2140052403C60AC0169EE72E0C8010E94F05F6EEE51
S21400525072E0CE0183569F4F0E948E9A0FB6F89446
S214005260DEBF0FBECDBFFE01319682E3DF011D9289
S2140052708A95E9F7AA24A394B12C912CE12CF12C61
S2140052806E01B3E8CB0ED11C3E2E2F2E6090AE05DD
S2140052907090AF052701440C551CF301E40DF51D75
S2140052A085859685892B61F1992031F060EF71E054
S2140052B0832D922D0E946F9AF301E40DF51D8685CD
S2140052C08F9385858F93D301AA0DBB1D14968C9161
S2140052D01F928F9384811F928F93E8E0F2E0FF93F2
S2140052E0EF93DF92CF920E94299BB601832D922DD9
S2140052F00E946F9A93940FB6F894DEBF0FBECDBF90
S2140053009FEFE91AF90AA2E0AA0EB11CB4E0EB1668
S214005310F10409F0BBCFCE0101960E943C60AC01BF
S2140053206AE772E0C8010E94F05FCE0183569F4F85
S2140053300E943C60AC016FE173E091C18731A1F53A
S214005340EE24E394F12CEC0EFD1E8AE0F701119298
S2140053508A95E9F78091A0141F928F9381E192E0DD
S2140053609F938F93FF92EF920E94299B0E94556015
S2140053708C0180EF92E00E943C60AC016FEF71E020
S214005380C8010E94F05F87EA94E10E943C60AC018D
S21400539066E072E0C8010E94F05FC7010E943C60B0
S2140053A0AC016FE672E027C18F30A1F5EE24E394DE
S2140053B0F12CEC0EFD1E8AE0D7011D928A95E9F7C6
S2140053C0809124011F928F9384E192E09F938F93A4
S2140053D0FF92EF920E94299B0E9455608C0186EFF7
S2140053E092E00E943C60AC016FEF71E0C8010E9441
S2140053F0F05F87EA94E10E943C60AC0166E072E0F0
S214005400C8010E94F05FC7010E943C60AC016BE0DF
S21400541072E0F1C0883109F073C0EE24E394F12CF9
S214005420EC0EFD1E84E1F70111928A95E9F76E01F4
S214005430F3E8CF0ED11C8BE0D6011D928A95E9F7D2
S2140054400E9455608C0184E093E00E943C60AC01B1
S2140054506FEF71E0C8010E94F05F87EA94E10E9456
S2140054603C60AC0166E072E0C8010E94F05FA6E70F
S214005470AA2EA4E1BA2EB7E18B2EB2E09B2EF50140
S21400548081915F011F928F939F928F92DF92CF92AE
S2140054900E94299BB601C7010E946F9A0F900F9039
S2140054A00F900F900F900F90FBE7AF16F4E1BF063A
S2140054B031F7B70182EB94E10E946F9A80917B14DA
S2140054C01F928F93FF92EF922CE132E03F932F933F
S2140054D0DF92CF920E94299BB60182EB94E10E9454
S2140054E06F9AC6010E943C60AC016DEF72E0C80185
S2140054F00E94F05F0FB6F894DEBF0FBECDBFB2C0FD
S2140055008931A9F40E9455608C0181E093E00E94E5
S2140055103C60AC016FEF71E0C8010E94F05F87EA63
S21400552094E10E943C60AC0166E072E098C08B316A
S21400553071F5809114061F928F9384E292E09F93F8
S2140055408F937E0137E9E30EF11CFF92EF920E94E3
S214005550299B0E9455608C0189E093E00E943C6084
S214005560AC016FEF71E0C8010E94F05F87EA94E13A
S2140055700E943C60AC0166E072E0C8010E94F05FE9
S214005580C7010E943C60AC016FE073E034C08F310D
S214005590E1F5809185141F928F9387E292E09F93A6
S2140055A08F93CE0189569F4F9F938F930E94299B7E
S2140055B00E9455608C0186E193E00E943C60AC013D
S2140055C06FEF71E0C8010E94F05F87EA94E10E94E5
S2140055D03C60AC0166E072E0C8010E94F05F60913A
S2140055E0851470E080E090E00E94F9940E941960B3
S2140055F0AC0169E173E0C8010E94F05F0F900F9064
S2140056000F900F900F900F902DC08032F1F50E94F2
S21400561055608C0183E293E00E943C60AC016FEF22
S21400562071E0C8010E94F05F87EA94E10E943C6046
S214005630AC0166E072E0C8010E94F05F88E293E089
S2140056400E943C60AC016EE874E0C8010E94F05F06
S2140056508CE293E00E943C60AC0160E472E0C8011A
S2140056600E94F05F0115110539F0C8010E94B25F73
S2140056707C010E947A7202C0E12CF12CC8010E94C3
S214005680325FC7010E94F19805C0E12CF12C00E0C2
S21400569010E0F4CFC156DF4F0FB6F894DEBF0FBE52
S2140056A0CDBFDF91CF911F910F91FF90EF90DF90CC
S2140056B0CF90BF90AF909F908F907F906F905F90AD
S2140056C04F903F902F900895FC0180E020E030E05E
S2140056D097E061E070E04081411101C09083419104
S2140056E0542F5150573078F450E041505109DB01A7
S2140056F002C0AA0FBB1F4A95E2F78A2B2F5F3F4FC7
S2140057002730310541F708950F931F93CF93DF930A
S214005710CDB7DEB728970FB6F894DEBF0FBECDBF65
S2140057208C01CB01FE01319626E0DF011D922A9501
S214005730E9F7BA014F8358870E94B29A4F8158857D
S214005740009719F420E030E037C0DA01FD0101903F
S2140057500020E9F73197EA1BFB0BE80FF91F808161
S214005760823209F4319680818A3361F781818232F0
S21400577011F0319601C03296DE011196CE010696E2
S21400578008C0322F30533A30E8F6A817B907D1F2DE
S2140057902D9321912C3241F02D3731F0223221F019
S2140057A02B3311F02111EDCFCE0101960E94E7991F
S2140057B0F801808321E030E0C90128960FB6F894FE
S2140057C0DEBF0FBECDBFDF91CF911F910F91089521
S2140057D0AF92BF92CF92DF92EF92FF920F931F93FA
S2140057E0CF93DF93CDB7DEB765970FB6F894DEBFDD
S2140057F00FBECDBF5C017B018E010F5F1F4F8FE098
S214005800F80111928A95E9F71D8A6E01F0E1CF0E34
S214005810D11C85E0F60111928A95E9F769E572E0F8
S214005820C8010E94319AA801B701C6016DDF892B15
S21400583019F420E030E044C0888981508330C8F7EE
S21400584061E672E0C8010E94319AA801B701CE0154
S21400585041965ADF6AE672E0C8010E94319AA801B2
S214005860B701CE01439650DF6FE672E0C8010E9492
S214005870319AA801B701CE01459646DF8D89823060
S21400588008F48A8B69E772E0CE0101960E94319A8D
S214005890AE014F5F5F4FB701CE01449635DF892BCF
S2140058A041F28C898150843008F0C3CF85E0FE0138
S2140058B07096D50101900D928A95E1F721E030E0CF
S2140058C0C90165960FB6F894DEBF0FBECDBFDF9157
